:100000000C942A001895000018950000189500001F
:10001000189500001895000018950000189500002C
:10002000189500001895000018950000189500001C
:10003000189500001895000018950000189500000C
:1000400018950000189500001895000018950000FC
:10005000189500008FE58DBFC0E4E6E24E2E84E0E7
:100060008EBFD4E0F4E05F2EA89584B7082E877F7A
:1000700084BF88E1992781BD91BDEEEFF3E0A0E652
:10008000B0E088278D933197E9F7662473E07ABB57
:100090007FEF7BBB73E077BB74E074BB78EF75BB1D
:1000A00074E271BB81E080937A0080E080937B00F2
:1000B00081E080937C0080E080937D0085E08093E8
:1000C0007F0080E08093800081E08093810081E068
:1000D000809382000091820041E0040FA3E8B0E029
:1000E0000C9380E08093840080E08093850080E022
:1000F0008093860081E08093870086E0809388006B
:1001000082E08093890087E080938A0085E0809375
:100110008B0080E080938C0084E080938D0089E0E8
:1001200080938E0088E080938F0083E0809390001E
:1001300080E08093910080E08093920080E0809343
:1001400093000E94680C8AE090E00E942F0C84E0EB
:1001500083BF79B7716079BF789482E08FBD89E100
:100160008EBD0E94FC09929A80E080936A00009103
:100170006A00093018F011F00C94E30000916A0055
:1001800040E1049FABE6B0E00C9200916B0040911F
:100190006A00040FABE6B0E00C9380916B00809393
:1001A000690080916B00809368000E94690786E96E
:1001B00090E00E942F0CAAE6B0E08C918F5F8C93A8
:1001C00010F40C94B7008FEF809369008FEF809349
:1001D00068000E9469070E946D0C10ED0E94850C5A
:1001E00018E00E94850C0E947C0C0E946D0C11EDA1
:1001F0000E94850C0E94A20CAAE6B0E01C930E940B
:100200007C0C00916A000F3011F00C9433010E94B5
:100210006D0C10ED0E94850C19E00E94850C0E9467
:100220007C0C0E946D0C11ED0E94850C0E94A40CA8
:10023000ACE7B0E01C930E94A40CABE7B0E01C93C9
:100240000E94A40CAAE7B0E01C930E94A40CAFE7A4
:10025000B0E01C930E94A20CA2E8B0E01C930E94A4
:100260007C0C0C947C010E946D0C10ED0E94850C9E
:1002700010E00E94850C10E00E94850C10E00E94A6
:10028000850C10E00E94850C17E00E94850C11E09F
:100290000E94850C11E00E94850C12E10E94850CE1
:1002A00010E00E94850C1FE00E94850CACE7B0E0D6
:1002B0001C910E94850CABE7B0E01C910E94850C5C
:1002C000AAE7B0E01C910E94850CAFE7B0E01C915A
:1002D0000E94850CA2E8B0E01C910E94850C0E944F
:1002E0007C0C88E88093690088E8809368000E940D
:1002F00069079E9B0C9479018CE291E00E942F0C7F
:10030000D89AAFE6B0E08C918F5F8C930E94CF06B5
:100310004091630000916400041711F40C94A7014C
:10032000809163008093640080E080936F0000916F
:100330008000003018F011F00C94A0010C94A5017D
:10034000809180008150809380000E946907009115
:100350006F000D3310F00C94B20170916D00706855
:1003600070936D0000916F000C3380E010F009F085
:1003700081E08F9300916F000A3781E008F080E000
:100380009F918923882311F40C94CB0170916D0007
:100390007F7770936D0000916F00093780E010F057
:1003A00009F081E08F9300916F00073B81E008F036
:1003B00080E09F918923882311F40C94E4017091CB
:1003C0006D00706870936D0000916F00063B18F02F
:1003D00011F00C94ED010C94F20170916D007F7797
:1003E00070936D0000916F000A3710F00C94FF01BC
:1003F00070916D007F7B70936D000C94040270917E
:100400006D00706470936D000E94FA070091860081
:10041000003018F011F00C940F020C942502A4E89F
:10042000B0E08C918F5F8C9300916E00013011F4DD
:100430000C941D0280E080938600009184000C30B3
:1004400011F00C9425020E94AC07409165000091C8
:100450006600041711F40C949A0280916500809351
:10046000660000917D00003018F011F00C943A0203
:100470000C943F0280917D00815080937D004091DB
:10048000670000917C00041781E009F080E08F9301
:100490004091650000917B00041781E009F080E045
:1004A0009F9189238F93A3E3B0E00C9107FB81E038
:1004B0000EF480E09F918923882311F40C94650247
:1004C00081E080937D000E94FC0900916E00013064
:1004D00081E009F080E08F9300917D00013081E0A0
:1004E00009F480E09F9189238F930091820000306E
:1004F00080E010F009F081E09F918923882311F4B6
:100500000C949A0280918300815080938300009123
:100510008300003011F00C949A0280918200809345
:10052000830080E08093840080E08093850082E0F7
:100530008093860000917D00003080E010F009F08B
:1005400081E08F93A3E3B0E00C9107FB81E00EF014
:1005500080E09F918923882311F40C94B50280E0F8
:1005600080937D007FB57F777FBD00917D00013056
:1005700081E009F080E08F93A8E9B0E00C9104FBE2
:1005800081E00EF080E09F918923882311F40C9480
:10059000D30200917F0041E0040FADE7B0E00C937F
:1005A0007FB57F777FBD00917D00013011F00C9405
:1005B000DB020E94630900916E00033081E009F4C0
:1005C00080E08F9300917E00013081E009F080E0AF
:1005D0009F918923882311F40C94F40280E0809386
:1005E0007E007FB57F777FBD00916E00003081E097
:1005F00009F480E08F93A3E3B0E00C9107FB81E066
:100600000EF480E09F9189238F9300918000003049
:1006100080E010F009F081E09F91892B882311F48C
:100620000C941503AA9A0C941603AA9800916E00D4
:10063000003011F00C944003A3E3B0E00C9106FBF2
:1006400081E00EF080E08F9300917D00013081E029
:1006500009F080E09F91892B882311F40C943803D2
:1006600085E080938000929A9F990C943803AA9A0F
:1006700000918000003011F00C9440039298AA98E9
:1006800000916E00003081E009F080E08F930091CE
:100690006E00013081E009F080E09F91892B882372
:1006A00011F40C94BA0370916D007E7F70936D000D
:1006B00070916D007D7F70936D0070916D007B7FF8
:1006C00070936D0070916D00777F70936D00009155
:1006D0008600003011F00C947A03ADE6B0E00C9186
:1006E00006FB16F40C947803C19AC09A0C947A0312
:1006F000C198C09800917D00003018F011F00C9462
:1007000083030C948E03ADE6B0E00C9106FB16F467
:100710000C948D03AA9A0C948E03AA98A8E9B0E0D1
:100720000C9103FB16F00C94A2038091820080933D
:10073000830080E08093840080E08093850082E0E5
:1007400080938600A7E6B0E08C910E94180CA9E681
:10075000B0E08C93A5E6B0E08C910E94180CA8E65E
:10076000B0E08C9300918600003011F00C94BA0335
:100770000E94690700916E00023011F00C947B0416
:10078000ACE7B0E08C910E94180CA9E6B0E08C9325
:10079000ABE7B0E08C910E94180CA8E6B0E08C9317
:1007A0000E946907C19AC09AA8E9B0E00C9103FBC6
:1007B00016F00C94F703A1E8B0E08C918F5F8C9356
:1007C00000918100023080E010F009F081E08F9309
:1007D00000918100003081E009F080E09F91892B39
:1007E000882311F40C94F70381E080938100009139
:1007F0008100013011F00C94390470916D00726029
:1008000070936D0070916D007E7F70936D00A8E90C
:10081000B0E00C9101FB16F00C94200400917C00D8
:10082000073111F00C94190480E080937C000C9443
:100830001E04ACE7B0E08C918F5F8C930E9445075B
:10084000A8E9B0E00C9102FB16F00C943904009179
:100850007C00003011F00C94320487E180937C001E
:100860000C94370480917C00815080937C000E941E
:10087000450700918100023011F00C947B047091C7
:100880006D00716070936D0070916D007D7F70934D
:100890006D00A8E9B0E00C9101FB16F00C94620425
:1008A00000917B000B3311F00C945B0480E080938B
:1008B0007B000C946004ABE7B0E08C918F5F8C936D
:1008C0000E944507A8E9B0E00C9102FB16F00C94D9
:1008D0007B0400917B00003011F00C9474048BE3D6
:1008E00080937B000C94790480917B0081508093ED
:1008F0007B000E94450700916E00033011F00C94BC
:10090000C50600918100033010F00C949B04A7E60B
:10091000B0E08C910E94180CA9E6B0E08C93A5E69B
:10092000B0E08C910E94180CA8E6B0E08C93C19ABC
:10093000C09A0C94AF040091810042E0041BA9E628
:10094000B0E00C93A9E6B0E00C9140E1049F0C925A
:10095000A9E6B0E08C91815F8C93C198C0980E9409
:100960006907A8E9B0E00C9103FB16F00C94DA04D7
:10097000A1E8B0E08C918F5F8C9380E080937E0043
:100980007FB57F777FBD00918100053080E010F05A
:1009900009F081E08F9300918100003081E009F03F
:1009A00080E09F91892B882311F40C94DA0481E074
:1009B0008093810000918100013011F00C941C059E
:1009C00070916D00726070936D0070916D007E7F0C
:1009D00070936D00A8E9B0E00C9101FB16F00C9447
:1009E000030500916700073111F00C94FC0480E0CE
:1009F000809367000C940105A7E6B0E08C918F5FAF
:100A00008C930E940807A8E9B0E00C9102FB16F055
:100A10000C941C0500916700003011F00C94150532
:100A200087E1809367000C941A05809167008150DC
:100A3000809367000E94080700918100023011F046
:100A40000C946A0570916D00716070936D007091E7
:100A50006D007D7F70936D00A8E9B0E00C9101FB03
:100A600016F00C944B05009165000B3311F00C94BB
:100A70003E0580E0809365000C944305A5E6B0E058
:100A80008C918F5F8C9380E08093630080E08093F3
:100A90006F000E942007A8E9B0E00C9102FB16F05D
:100AA0000C946A0500916500003011F00C945D050E
:100AB0008BE3809365000C94620580916500815002
:100AC0008093650080E08093630080E080936F00F6
:100AD0000E94200700918100033011F00C94E10581
:100AE00070916D00716070936D0070916D007D7FED
:100AF00070936D00A8E9B0E00C9101FB16F00C9426
:100B0000990500917A00063011F00C948C0581E073
:100B100080937A000C949105AAE7B0E08C918F5FE6
:100B20008C9380E080937E007FB57F777FBD0E94AD
:100B30004507A8E9B0E00C9102FB16F00C94B8054B
:100B400000917A00013011F00C94AB0586E080939F
:100B50007A000C94B00580917A00815080937A00DD
:100B600080E080937E007FB57F777FBD0E94450740
:100B7000A8E9B0E00C9104FB16F00C94D2050091AA
:100B80007E00003011F00C94CC0581E080937E0053
:100B90000E94FC090C94D20580E080937E007FB512
:100BA0007F777FBD00EF40917A00040FA8E6B0E0A8
:100BB0000C9300917E00013011F00C94E1050E942D
:100BC000630900918100043011F00C94410670918A
:100BD0006D00716070936D0070916D007D7F7093FA
:100BE0006D00A8E9B0E00C9101FB16F00C940A0628
:100BF00000917F000F3011F00C94030683E0809386
:100C00007F000C940806AFE7B0E08C918F5F8C9367
:100C10000E944507A8E9B0E00C9102FB16F00C9485
:100C2000230600917F00033011F00C941C068FE026
:100C300080937F000C94210680917F0081508093E7
:100C40007F000E94450700917F000A3010F00C944D
:100C5000300600EF40917F00040FA8E6B0E00C934F
:100C600000917F00093018F011F00C9439060C94B3
:100C70004106AFE7B0E08C910E94180CA8E6B0E006
:100C80008C9300918100053011F00C94C506709191
:100C90006D00716070936D0070916D007D7F709339
:100CA0006D00A8E9B0E00C9101FB16F00C947C06F5
:100CB000009182000A3010F00C946506A2E8B0E0C2
:100CC0008C918F5F8C930C946A06A2E8B0E08C91B3
:100CD0008B5F8C93009182000C3318F011F00C9410
:100CE00073060C94760680E08093820080918200E7
:100CF000809383000E944507A8E9B0E00C9102FBB5
:100D000016F00C94A70600918200003011F00C94AC
:100D10008C0681E480938200009182000A3018F0F2
:100D200011F00C9495060C949C06A2E8B0E08C910E
:100D300085508C930C94A106809182008150809301
:100D4000820080918200809383000E944507009179
:100D500082000A3010F00C94B40600EF409182003B
:100D6000040FA8E6B0E00C9300918200093018F05F
:100D700011F00C94BD060C94C506A2E8B0E08C916D
:100D80000E94180CA8E6B0E08C93D89875B77F70D5
:100D9000706475BF88950C948001F894FFCF0E9411
:100DA0006D0C10ED0E94850C10E00E94850C0E94D5
:100DB0007C0C0E946D0C11ED0E94850C0E94A40C0D
:100DC000A0E6B0E01C930E94A40CA1E6B0E01C9346
:100DD0000E94A20CA2E6B0E01C930E947C0CA0E64C
:100DE000B0E09C910E941F0CA3E6B0E08C93A1E6BA
:100DF000B0E09C910E941F0CA5E6B0E08C93A2E6A7
:100E0000B0E09C910E941F0CA7E6B0E08C9308957F
:100E1000A7E6B0E08C910E94180CA2E6B0E08C939B
:100E20000E946D0C10ED0E94850C12E00E94850C52
:100E3000A2E6B0E01C910E94850C0E947C0C0895F3
:100E4000A3E6B0E08C910E94180CA0E6B0E08C9371
:100E5000A5E6B0E08C910E94180CA1E6B0E08C935E
:100E60000E946D0C10ED0E94850C10E00E94850C14
:100E7000A0E6B0E01C910E94850CA1E6B0E01C91B8
:100E80000E94850C0E947C0C08950E946D0C10ED50
:100E90000E94850C19E00E94850CACE7B0E01C9123
:100EA0000E94850CABE7B0E01C910E94850CAAE77C
:100EB000B0E01C910E94850CAFE7B0E01C910E944D
:100EC000850CA2E8B0E01C910E94850C0E947C0C6D
:100ED0000895ADE6B0E00C9107FB81E00EF080E0F4
:100EE0008F93009193000B3681E008F080E09F9192
:100EF0008923882311F40C949107ADE6B0E00C919E
:100F000000FB16F00C9487078FEF80936800ADE626
:100F1000B0E00C9101FB16F00C9491078FEF8093D9
:100F2000690010E41E7F0E946D0C0E94850CA9E6EA
:100F3000B0E01C910E94850C0E947C0C12E41E7F84
:100F40000E946D0C0E94850CA8E6B0E01C910E94E6
:100F5000850C0E947C0C0895C198C09880E0809315
:100F60008400A5E8B0E08C918F5F8C9300918500A0
:100F70000A3011F00C94C40780E0809385008091C2
:100F800086008150809386000091850041E0040F27
:100F9000ABE6B0E00C93A6E8B0E00C9100FB16F0D5
:100FA0000C94D9070BE040916B00041BABE6B0E05A
:100FB0000C93ABE6B0E0AD90BB24A6E8B0E0AA0D80
:100FC000BB1D8C9180936A0000916A0040E1049FF0
:100FD000A8E6B0E00C920091680040916A00040F0E
:100FE000A8E6B0E00C9380916800809369000E94AD
:100FF0006907089500919100003011F00C942708C2
:1010000080E080939400A9E3B0E08C9187FBA4E991
:10101000B0E08C9180F98C93A9E3B0E08C9186FBD1
:10102000A4E9B0E08C9181F98C93A9E3B0E08C91B4
:1010300085FBA4E9B0E08C9182F98C93A9E3B0E040
:101040008C9184FBA4E9B0E08C9183F98C9340915E
:10105000950000919400041781E009F480E08F93DB
:10106000009194000F3081E008F080E09F91892387
:101070008F9300919100003081E009F080E09F9112
:101080008923882311F40C947B088AE080939100D3
:10109000809194008093950081E080938100A4E981
:1010A000B0E00C9100FB16F40C945C0880E0809397
:1010B0006E0080E080938000A4E9B0E00C9101FB19
:1010C00016F40C94670881E080936E00929AA4E96C
:1010D000B0E00C9102FB16F40C94710882E080934E
:1010E0006E00A4E9B0E00C9103FB16F40C947B08AD
:1010F00083E080936E0000919100003018F011F0B1
:101100000C9484080C9489088091910081508093FC
:10111000910080E08093980000919200003011F0DF
:101120000C94C60881E080939600A3E3B0E08C9114
:1011300083FBA6E9B0E08C9181F98C93A3E3B0E046
:101140008C9185FBA6E9B0E08C9182F98C93A3E3A6
:10115000B0E08C9184FBA6E9B0E08C9183F98C938C
:10116000A3E3B0E08C9186FBA6E9B0E08C9184F912
:101170008C930FE140919600041BA6E9B0E00C931C
:10118000A6E9B0E08C9190E189278C93409197007B
:1011900000919600041781E009F480E08F9300919C
:1011A0009200003081E009F080E09F91892388233C
:1011B00011F40C94E50885E08093920080919600EC
:1011C0008093970080E08093930000919600003018
:1011D00018F011F00C94EE080C94F308A3E9B0E0B9
:1011E0008C918F5F8C93A6E9B0E00C9100FB81E0BD
:1011F0000EF080E08F93A6E9B0E00C9103FB81E054
:101200000EF080E09F91892B8F93A6E9B0E00C91BE
:1012100004FB81E00EF080E09F91892B882311F47C
:101220000C94280900919300013011F00C941C09D2
:10123000809196008093980000919300013018F0FF
:1012400011F00C9425090C94280982E080939300F6
:10125000A6E9B0E00C9101FB81E00EF080E08F93F5
:10126000A6E9B0E00C9102FB81E00EF080E09F91D6
:10127000892B882311F40C945409009193000130B8
:1012800011F00C944709809196008093980000918A
:1012900093000A3711F00C945409809196008093C2
:1012A00098008BE68093930000919200003018F034
:1012B00011F00C945D090C946209809192008150A8
:1012C000809392000895A4E7B0E00D911C91003046
:1012D00050E0150711F00C94F7097FB57F777FBDBB
:1012E0000E946C0BA2E7B0E00E944E0C0E94690BBA
:1012F0000E946C0BA4E7B0E00E944E0C0E94690BA8
:10130000A4E7B0E00D911C9142E050E00E943E0C39
:10131000A4E7B0E00D931C93A4E7B0E00D911C91FD
:10132000003050E0150711F00C94B4090E94FC093C
:101330000E946C0BA2E7B0E00E944E0C0E94690B69
:101340000E946C0BA4E7B0E00E944E0C0E94690B57
:10135000A4E7B0E00D911C9142E050E00E943E0CE9
:10136000A4E7B0E00D931C93A2E7B0E00D911C91AF
:10137000003050E0150718F011F00C94C1090C94DE
:10138000F50900E014E224EF30E0A2E7B0E04D916F
:101390005C91662777270E94C00BA6E7B0E04D93CB
:1013A0005D936D937D93A6E7B0E08D919C91A0E74E
:1013B000B0E08D939C93A0E7B0E011968C9187BD2F
:1013C000A0E7B0E08C9186BDA0E7B0E00D911C9144
:1013D00042E050E00E949C0B5BBD4ABD7FB5706847
:1013E0007FBDA4E7B0E00E946F0B0C94FB09A4E75B
:1013F000B0E00E946F0B089580E090E0A4E7B0E0B9
:101400008D939C9300917A00013011F00C940E0A98
:10141000EEE7F4E10E94690B0C943E0A023011F0F1
:101420000C94180AE2EAF4E10E94690B0C943E0A5B
:10143000033011F00C94220AE6EFF4E10E94690BEC
:101440000C943E0A043011F00C942C0AEAE4F5E105
:101450000E94690B0C943E0A053011F00C94360A78
:10146000E6E8F5E10E94690B0C943E0A063011F0A3
:101470000C943E0AEEE5F6E10E94690B089500081F
:10148000080000000700000808000000070000082E
:1014900008000000070000080800000045000000E8
:1014A0000000500A0C0000000B00500A0C00000065
:1014B0000B00500A0C0000000B00500A0C0000004A
:1014C0000B00500A0C0000000B00500A0C0000003A
:1014D0000B00500A0C0000000B00500A0C0000002A
:1014E0000B00500A0C0000000B00500A0C0000001A
:1014F000950000000000DC0C070018080700280514
:101500000700320C0700E9080700310A0700720CD7
:101510000700200B0700D0060700B0080700030FE4
:101520000700310C07006F0F070078040700560909
:101530000700050C0700E00B07004B0B07009006A7
:101540000700230A07000000000027051000970489
:101550001000E40220003F03200055041000DC03CB
:1015600010004B02200093022000DC0310007003E7
:1015700010002A0220009302200070036000000087
:101580001801000000004B022D006E022D00930296
:101590002D00BA021E0010030F004B021E00BA02FB
:1015A0001E0000000F0010031E0000000F004B0281
:1015B0000F00BA021E0010030F00BA021E00A4039F
:1015C0003C0000002D0010031E00A4030F00E402E5
:1015D0001E0010031E0000000F00A4031E000000E8
:1015E0000F00E4020F0010031E00A4030F001604F6
:1015F0001E0055043C00A4030F0000001E009704C9
:101600002C000000020097040E0000001E0097044A
:101610002C000000020097040E0000001E0097043A
:101620001E0055040F0016041E00DC033C001003CE
:101630000F0000001E0097041E0055040F009704C1
:101640000F0000001E00A4031E0016040F0000007F
:101650001E00A4030F0000002D0000000000700316
:101660002500E402250093024A002A024A00700382
:101670002500E402250093024A002A024A0055048C
:101680002500DC03250070034A00E4024900000045
:101690000100E402490000000100E4029400DC03C0
:1016A0002500700325003F034A0093024A006E02A2
:1016B0004A004B024A0093026F004B0224000000D4
:1016C00001004B024A002A0294000000DE000000E4
:1016D00000008E2E9F2E0895E82DF92D0895ED918E
:1016E000FC91E150F040FC93EE93089509D00E94E4
:1016F0003E0C00FC10D0089503D01ED001F8F9CFA5
:101700000024E89457FF02C009D0689400F80BD079
:1017100010F80124089502D009D0089550954095FD
:101720004F5F5F4F0895E89417FF08950095109557
:101730000F5F1F4F68940895352F242FE894452B91
:1017400011F468940895512F402F0027112780E14C
:10175000440F551F001F111F021B130B416018F48B
:10176000020F131F4E7F8A9599F7089500FC05D04C
:10177000089530D005D001F8F9CF37D03FD0089583
:10178000842F952FA62FB72FE894452B462B472B58
:1017900011F468940895402F512F622F732F002762
:1017A000112722273327F0E2440F551F661F771FAA
:1017B000001F111F221F331F081B190B2A0B3B0B85
:1017C000416028F4080F191F2A1F3B1F4E7FFA950E
:1017D00059F708950024E89477FF02C006D0689472
:1017E00000F809D010F80124089512D04F5F5F4F20
:1017F0006F4F7F4F0895E89437FF08950095109537
:10180000209530950F5F1F4F2F4F3F4F68940895DD
:1018100040955095609570950895982F82958F709A
:10182000805D8D939F70905D9D9388278C93089524
:101830004AE0082F0E94580C0295802B0895892FAA
:101840008F70905110F0865FFCCF08953197F1F7BB
:101850000895689462F80895E89462F80895EF9303
:10186000FF93EE27E82BE92B31F0E0EAFFE0319718
:10187000F1F70197D1F7FF91EF9108950F92B80119
:10188000469F8001479F100D569F100D0F900895A1
:10189000C89531960020089591E005C092E003C0FC
:1018A00094E001C098E0F4DF0D929A95E1F7089575
:1018B000FF93881BF9E0001FFA9511F4FF9108953A
:1018C000881F841B18F4840F8894F5CF0894F3CFF5
:1018D000A998A898A198A0980895A09AA19803D033
:1018E000A09801D0A19AEF93FF93E4E2F0E00E9468
:1018F000260CFF91EF910895A09AA19AF4DFA09889
:10190000989BFECFF0DFA198EECF0894111F01C085
:10191000110F69F0A09A18F40000A19802C0A19AD2
:1019200000C0E1DFA098989BFECFDDDFF1CFA09A49
:10193000A198D9DFA098989BFECFE89499996894D4
:1019400062F8D1CF089401C08894331F11E0A09AA7
:10195000A198C9DFA098989BFECFC5DF889499997C
:101960000894111FA0F7A09A379510F4A19801C010
:0E197000A19AB9DFA098989BFECFB5DF08952D
:00000001FF
